:040000008A11112828
:10000800FE00030E83120313AC000408AD000A08B7
:10001800AE007F08AF008A1199298A11132883132B
:10002800BF30FD000330FE003F30FF00A0308400E9
:100038008A11A6238A118A11C8238A11D4008A1129
:10004800C923D500CC01CD01CE01CF01D001D1010A
:10005800D201D30183018A11102B83120313C40028
:100068007030BE003E08C100013083120313C4077C
:10007800FF30440784008A1175228A11BE003E08A9
:10008800C7004708031908002530470603195128F7
:1000980047088A11B2238A11382883120313C20130
:1000A8000130C407FF30440784008A1175228A1181
:1000B800C700003A0319E528643A031967280D3A7E
:1000C8000319672838284108840083130008C500ED
:1000D800840A0008C6000230BE003E08C107C61FD9
:1000E8007E280330BE003E08C204C509C609C50AF9
:1000F8000319C60AC701C70A053047060319A1280C
:100108004708BE003E07013E84008A1175228A1105
:10011800BF008A1175228A11C00040084602031DDB
:1001280097283F084502031CA1280130BE003E085D
:10013800C70705304706031D8428420803390319F9
:10014800A9282D308A11B2238A1183120313470874
:10015800BE003E08C300FF3083120313BE003E08F2
:10016800C307430A031938280A30B8000030B90019
:100178004308BE003E07013E84008A1175228A1199
:10018800B0008A1175228A11B1004608B3004508EB
:10019800B2008A11FB218A11831203133108BB00B4
:1001A8003008BA008A11AA228A1183120313380868
:1001B800303EBF003F08C70047088A11B2238A11A2
:1001C800AF28080083120313A5002030A2002208DC
:1001D800A600013083120313A507FF30250784000A
:1001E8008A1175228A11A2002208AB002B08031974
:1001F800080025302B06031906292B088A11BA2373
:100208008A11ED2883120313A7010130A507FF30D7
:10021800250784008A1175228A11AB00003A031958
:100228009829643A03191C290D3A03191C29ED2849
:100238002608840083130008A900840A0008AA007D
:100248000230A2002208A607AA1F33290330A20001
:100258002208A704A909AA09A90A0319AA0AAB012D
:10026800AB0A05302B06031956292B08A2002207D2
:10027800013E84008A1175228A11A3008A11752211
:100288008A11A40024082A02031D4C2923082902E4
:10029800031C56290130A2002208AB0705302B06A3
:1002A800031D39292708033903195E292D308A11BE
:1002B800BA238A11831203132B08A2002208A8006C
:1002C800FF3083120313A2002208A807280A031983
:1002D800ED280A30F8000030F9002808A2002207AB
:1002E800013E84008A1175228A11F0008A11752254
:1002F8008A11F1002A08F3002908F2008A1139222C
:100308008A117108FB007008FA008A11DE228A112E
:100318007808303E83120313A3002308AB002B0890
:100328008A11BA238A11642908008B1CF029871EB8
:10033800A3290130CE070318CF0A0030A829FF30BF
:10034800CE070318CF0AFF30CF074F08803AFF00C7
:1003580080307F02031DB22964304E02031CBA2983
:10036800643083120313CE000030CF0083120313CE
:100378004F08803AFF0080307F02031DC5290130F5
:100388004E020318CB2983120313CE01CF01831227
:1003980003134F084D06031DD3294E084C060319B5
:1003A800DD294F08A1004E08A0000B308A11E62075
:1003B8008A11031083120313071C0314031CE82972
:1003C800831203130714EB298312031307104F0832
:1003D800CD004E08CC008B102F08FF002E088A0095
:1003E8002D0884002C0E8300FE0E7E0E0900831259
:1003F8000313B501B601300831040319342AB701D3
:10040800B70AB11B132A01300310B00DB10DFF3E1E
:10041800031D082A0130B4003408B707052A013043
:100428000310B50DB60DFF3E031D142A3108330223
:10043800031D202A30083202031C292A3008B20280
:100448003108031CB303B302351401300310B10C97
:10045800B00CFF3E031D2A2A0130B702031D132AE0
:100468003608B1003508B0000800F501F60170083B
:1004780071040319702AF701F70AF11B4F2A01309A
:100488000310F00DF10DFF3E031D442A0130F40066
:100498007408F707412A01300310F50DF60DFF3EE9
:1004A800031D502A71087302031D5C2A700872022A
:1004B800031C652A7008F2027108031CF303F30297
:1004C800751401300310F10CF00CFF3E031D662A71
:1004D8000130F702031D4F2A7608F1007508F00075
:1004E800080002308A000408840A820700340134B4
:1004F80000340A34003464340034E83403341034EB
:10050800273476346F346C3475346D346534203464
:1005180070346F3473346934743469346F346E34BE
:1005280020343D342034253464340A3400346134B2
:100538007534643469346F345F34703472346F34B2
:100548006A346534633474340A3400348312031310
:10055800380839040319D92ABD01BD0AB91BC02AB4
:1005680001300310B80DB90DFF3E031DB52A013047
:10057800BC003C08BD07B22A39083B02031DC62A45
:1005880038083A02031CCE2A3808BA023908031C74
:10059800BB03BB0201300310B90CB80CFF3E031DAE
:1005A800CF2A0130BD02031DC02A3B08B9003A0812
:1005B800B80008007808790403190B2BFD01FD0A1F
:1005C800F91BF22A01300310F80DF90DFF3E031D47
:1005D800E72A0130FC007C08FD07E42A79087B0241
:1005E800031DF82A78087A02031C002B7808FA02FF
:1005F8007908031CFB03FB0201300310F90CF80C0B
:10060800FF3E031D012B0130FD02031DF22A7B086A
:10061800F9007A08F80008008A118F238A118A11D4
:100628007C238A11BF308400A03083120313C800D2
:100638000408C9001F30CA00480884008313000852
:10064800CB00C80A490884004B088000C90ACA0BB5
:10065800202BBF308A115E238A1121308A11312064
:100668008A1183120313CE01CF01CC01CD018A1167
:10067800C2238A113E2B20343134303430342034B4
:100688007334743465347034203476346F346C3495
:1006980075346D346534203463346F346E34743497
:1006A80072346F346C342034643465346D346F3490
:1006B8000A34003483120313B10031088400831311
:1006C80000080319080083160313981C672B83126C
:1006D800031331088400831300089900310884004B
:1006E80000080319612B0130B0003008B107612BF5
:1006F800831203179E019F0199019A018316031320
:100708008613981618128312031398171930831634
:10071800031399000800831203179E019F01990192
:100728009A018316031307100515871607128711F8
:100738008312031307128711071008007E088A0026
:100748007F088200A2238A118000840A04087D069B
:1007580003190034FF0A0319FE0AA62B8312031398
:10076800B0000C1EB52B300899000800F000831269
:1007780003130C1EBB2B7008990008008B170B166F
:0C07880083160313011308000134013430
:02400E00F4F0CC
:00000001FF
